{
  "contractName": "Faucet",
  "abi": [
    {
      "inputs": [],
      "name": "counter",
      "outputs": [
        {
          "internalType": "int256",
          "name": "",
          "type": "int256"
        }
      ],
      "stateMutability": "view",
      "type": "function"
    },
    {
      "inputs": [],
      "name": "funds",
      "outputs": [
        {
          "internalType": "int256",
          "name": "",
          "type": "int256"
        }
      ],
      "stateMutability": "view",
      "type": "function"
    },
    {
      "inputs": [],
      "name": "test",
      "outputs": [
        {
          "internalType": "uint32",
          "name": "",
          "type": "uint32"
        }
      ],
      "stateMutability": "view",
      "type": "function"
    }
  ],
  "bytecode": "0x60806040527ffffffffffffffffffffffffffffffffffffffffffffffffffffffffffffffc186000557ffffffffffffffffffffffffffffffffffffffffffffffffffffffffffffffff660015563ffffffff600260006101000a81548163ffffffff021916908363ffffffff16021790555034801561007d57600080fd5b506101668061008d6000396000f3fe608060405234801561001057600080fd5b50600436106100415760003560e01c806361bc221a14610046578063c89f2ce414610064578063f8a8fd6d14610082575b600080fd5b61004e6100a0565b60405161005b91906100db565b60405180910390f35b61006c6100a6565b60405161007991906100db565b60405180910390f35b61008a6100ac565b6040516100979190610115565b60405180910390f35b60015481565b60005481565b600260009054906101000a900463ffffffff1681565b6000819050919050565b6100d5816100c2565b82525050565b60006020820190506100f060008301846100cc565b92915050565b600063ffffffff82169050919050565b61010f816100f6565b82525050565b600060208201905061012a6000830184610106565b9291505056fea264697066735822122043af07181c5f3ad5cb5ae5f503d88d5503207833781c23518d17bfd2454d000764736f6c63430008100033",
  "immutableReferences": {},
  "source": "// SPDX-License-Identifier: MIT\r\npragma solidity >=0.4.22 <0.9.0;\r\n\r\ncontract Faucet {\r\n  // storage variables\r\n    int public funds = -1000; // positive value\r\n    int public counter = -10;\r\n\r\n    uint32 public test =  4294967295;\r\n    \r\n    \r\n}",
  "sourcePath": "D:\\repo\\dapp\\contracts\\FaucetContract.sol",
  "compiler": {
    "name": "solc",
    "version": "0.8.16+commit.07a7930e.Emscripten.clang"
  },
  "schemaVersion": "3.4.9",
  "updatedAt": "2022-09-15T14:06:08.814Z",
  "devdoc": {
    "kind": "dev",
    "methods": {},
    "version": 1
  },
  "userdoc": {
    "kind": "user",
    "methods": {},
    "version": 1
  }
}