{
  "contractName": "MyContract",
  "abi": [
    {
      "stateMutability": "payable",
      "type": "receive"
    },
    {
      "inputs": [],
      "name": "addFunds",
      "outputs": [],
      "stateMutability": "payable",
      "type": "function"
    },
    {
      "inputs": [],
      "name": "getFunds",
      "outputs": [
        {
          "internalType": "uint256",
          "name": "",
          "type": "uint256"
        }
      ],
      "stateMutability": "view",
      "type": "function"
    },
    {
      "inputs": [
        {
          "internalType": "uint256",
          "name": "testNum",
          "type": "uint256"
        }
      ],
      "name": "test",
      "outputs": [
        {
          "internalType": "uint256",
          "name": "",
          "type": "uint256"
        }
      ],
      "stateMutability": "pure",
      "type": "function"
    },
    {
      "inputs": [],
      "name": "justTest",
      "outputs": [
        {
          "internalType": "uint256",
          "name": "",
          "type": "uint256"
        }
      ],
      "stateMutability": "pure",
      "type": "function"
    }
  ],
  "bytecode": "0x6080604052336000806101000a81548173ffffffffffffffffffffffffffffffffffffffff021916908373ffffffffffffffffffffffffffffffffffffffff16021790555034801561005057600080fd5b50610308806100606000396000f3fe6080604052600436106100435760003560e01c806329e99f071461004f5780634d9b37351461008c5780639da9d765146100b7578063a26759cb146100e25761004a565b3661004a57005b600080fd5b34801561005b57600080fd5b5061007660048036038101906100719190610218565b6100ec565b6040516100839190610254565b60405180910390f35b34801561009857600080fd5b506100a16100fd565b6040516100ae9190610254565b60405180910390f35b3480156100c357600080fd5b506100cc610144565b6040516100d99190610254565b60405180910390f35b6100ea61014d565b005b600060046040515050819050919050565b6000600160003373ffffffffffffffffffffffffffffffffffffffff1673ffffffffffffffffffffffffffffffffffffffff16815260200190815260200160002054905090565b60006004905090565b600160003373ffffffffffffffffffffffffffffffffffffffff1673ffffffffffffffffffffffffffffffffffffffff1681526020019081526020016000205434610198919061029e565b600160003373ffffffffffffffffffffffffffffffffffffffff1673ffffffffffffffffffffffffffffffffffffffff16815260200190815260200160002081905550565b600080fd5b6000819050919050565b6101f5816101e2565b811461020057600080fd5b50565b600081359050610212816101ec565b92915050565b60006020828403121561022e5761022d6101dd565b5b600061023c84828501610203565b91505092915050565b61024e816101e2565b82525050565b60006020820190506102696000830184610245565b92915050565b7f4e487b7100000000000000000000000000000000000000000000000000000000600052601160045260246000fd5b60006102a9826101e2565b91506102b4836101e2565b92508282019050808211156102cc576102cb61026f565b5b9291505056fea2646970667358221220cc36a8cb1b8d7413e6a7a842365633b687e7f477872335392a2ba3cb85bceb1064736f6c63430008100033",
  "immutableReferences": {},
  "source": "// SPDX-License-Identifier: MIT\npragma solidity >=0.4.22 <0.9.0;\n\ncontract MyContract {\n    address private owner = msg.sender;\n    // private can only accecable within contract\n    \n    // internal can be only accesable within smart contract and derived smart contract\n\n\n\n    mapping(address => uint256) amount;\n\n    receive() external payable {}\n\n    function addFunds() public payable {\n        amount[msg.sender] = msg.value + amount[msg.sender];\n    }\n\n    function getFunds() public view returns (uint256) {\n        return amount[msg.sender];\n    }\n\n    function test(uint256 testNum) external pure returns (uint256) {\n        assembly {\n            let _num := 4\n            let _fmp := mload(0x40)\n        }\n\n        return testNum;\n    }\n\n    // function send() public payable{\n    //   address(owner).send(address(this).balance);\n    // }\n\n    function justTest() external pure returns (uint256) {\n        return 2 + 2;\n    }\n}\n",
  "sourcePath": "D:\\repo\\dapp\\contracts\\MyContract.sol",
  "compiler": {
    "name": "solc",
    "version": "0.8.16+commit.07a7930e.Emscripten.clang"
  },
  "schemaVersion": "3.4.9",
  "updatedAt": "2022-09-15T14:06:08.836Z",
  "devdoc": {
    "kind": "dev",
    "methods": {},
    "version": 1
  },
  "userdoc": {
    "kind": "user",
    "methods": {},
    "version": 1
  }
}