{
  "contractName": "StorageTwo",
  "abi": [
    {
      "inputs": [],
      "name": "noOfFunds",
      "outputs": [
        {
          "internalType": "uint256",
          "name": "",
          "type": "uint256"
        }
      ],
      "stateMutability": "view",
      "type": "function"
    },
    {
      "inputs": [],
      "name": "testNum",
      "outputs": [
        {
          "internalType": "uint256",
          "name": "",
          "type": "uint256"
        }
      ],
      "stateMutability": "view",
      "type": "function"
    },
    {
      "inputs": [],
      "name": "emitLog",
      "outputs": [
        {
          "internalType": "uint32",
          "name": "",
          "type": "uint32"
        }
      ],
      "stateMutability": "pure",
      "type": "function"
    },
    {
      "inputs": [],
      "name": "addFunds",
      "outputs": [],
      "stateMutability": "payable",
      "type": "function"
    },
    {
      "inputs": [
        {
          "internalType": "uint256",
          "name": "index",
          "type": "uint256"
        }
      ],
      "name": "getFunders",
      "outputs": [
        {
          "internalType": "address",
          "name": "",
          "type": "address"
        }
      ],
      "stateMutability": "view",
      "type": "function"
    },
    {
      "inputs": [],
      "name": "withDraw",
      "outputs": [],
      "stateMutability": "nonpayable",
      "type": "function"
    },
    {
      "inputs": [],
      "name": "allData",
      "outputs": [
        {
          "internalType": "address[]",
          "name": "",
          "type": "address[]"
        }
      ],
      "stateMutability": "view",
      "type": "function"
    }
  ],
  "bytecode": "0x608060405234801561001057600080fd5b50336000806101000a81548173ffffffffffffffffffffffffffffffffffffffff021916908373ffffffffffffffffffffffffffffffffffffffff1602179055506064600181905550610859806100686000396000f3fe6080604052600436106100705760003560e01c8063a26759cb1161004e578063a26759cb146100f4578063ae28f1ed146100fe578063b974b0a314610129578063f42c13bf1461015457610070565b80630fdb1c10146100755780633a7b6c741461008c57806361cef63c146100c9575b600080fd5b34801561008157600080fd5b5061008a61017f565b005b34801561009857600080fd5b506100b360048036038101906100ae9190610498565b6102a1565b6040516100c09190610506565b60405180910390f35b3480156100d557600080fd5b506100de6102de565b6040516100eb9190610530565b60405180910390f35b6100fc6102e4565b005b34801561010a57600080fd5b50610113610354565b6040516101209190610530565b60405180910390f35b34801561013557600080fd5b5061013e61035a565b60405161014b9190610609565b60405180910390f35b34801561016057600080fd5b50610169610454565b604051610176919061064a565b60405180910390f35b60008054906101000a900473ffffffffffffffffffffffffffffffffffffffff1673ffffffffffffffffffffffffffffffffffffffff163373ffffffffffffffffffffffffffffffffffffffff161461020d576040517f08c379a0000000000000000000000000000000000000000000000000000000008152600401610204906106c2565b60405180910390fd5b670de0b6b3a7640000471015610258576040517f08c379a000000000000000000000000000000000000000000000000000000000815260040161024f9061072e565b60405180910390fd5b3373ffffffffffffffffffffffffffffffffffffffff166108fc479081150290604051600060405180830381858888f1935050505015801561029e573d6000803e3d6000fd5b50565b60006003600083815260200190815260200160002060009054906101000a900473ffffffffffffffffffffffffffffffffffffffff169050919050565b60025481565b6000600260008154809291906102f99061077d565b919050559050336003600083815260200190815260200160002060006101000a81548173ffffffffffffffffffffffffffffffffffffffff021916908373ffffffffffffffffffffffffffffffffffffffff16021790555050565b60015481565b6060600060025467ffffffffffffffff81111561037a576103796107c5565b5b6040519080825280602002602001820160405280156103a85781602001602082028036833780820191505090505b50905060005b60025481101561044c576003600082815260200190815260200160002060009054906101000a900473ffffffffffffffffffffffffffffffffffffffff168282815181106103ff576103fe6107f4565b5b602002602001019073ffffffffffffffffffffffffffffffffffffffff16908173ffffffffffffffffffffffffffffffffffffffff168152505080806104449061077d565b9150506103ae565b508091505090565b6000607b905090565b600080fd5b6000819050919050565b61047581610462565b811461048057600080fd5b50565b6000813590506104928161046c565b92915050565b6000602082840312156104ae576104ad61045d565b5b60006104bc84828501610483565b91505092915050565b600073ffffffffffffffffffffffffffffffffffffffff82169050919050565b60006104f0826104c5565b9050919050565b610500816104e5565b82525050565b600060208201905061051b60008301846104f7565b92915050565b61052a81610462565b82525050565b60006020820190506105456000830184610521565b92915050565b600081519050919050565b600082825260208201905092915050565b6000819050602082019050919050565b610580816104e5565b82525050565b60006105928383610577565b60208301905092915050565b6000602082019050919050565b60006105b68261054b565b6105c08185610556565b93506105cb83610567565b8060005b838110156105fc5781516105e38882610586565b97506105ee8361059e565b9250506001810190506105cf565b5085935050505092915050565b6000602082019050818103600083015261062381846105ab565b905092915050565b600063ffffffff82169050919050565b6106448161062b565b82525050565b600060208201905061065f600083018461063b565b92915050565b600082825260208201905092915050565b7f6f6e6c79206f776e65722063616e20646f20616374696f6e0000000000000000600082015250565b60006106ac601883610665565b91506106b782610676565b602082019050919050565b600060208201905081810360008301526106db8161069f565b9050919050565b7f616d6f756e74206973206c6f7700000000000000000000000000000000000000600082015250565b6000610718600d83610665565b9150610723826106e2565b602082019050919050565b600060208201905081810360008301526107478161070b565b9050919050565b7f4e487b7100000000000000000000000000000000000000000000000000000000600052601160045260246000fd5b600061078882610462565b91507fffffffffffffffffffffffffffffffffffffffffffffffffffffffffffffffff82036107ba576107b961074e565b5b600182019050919050565b7f4e487b7100000000000000000000000000000000000000000000000000000000600052604160045260246000fd5b7f4e487b7100000000000000000000000000000000000000000000000000000000600052603260045260246000fdfea26469706673582212205eda88b05c9d252d3bda54ed627ac70d2055906068c8a2ae498ca0fff13c022464736f6c63430008100033",
  "immutableReferences": {},
  "source": "// SPDX-License-Identifier: MIT\r\npragma solidity >=0.4.22 <0.9.0;\r\nimport  \"./Owner.sol\";\r\nimport  \"./Logger.sol\";\r\nimport  \"./Imt.sol\";\r\n\r\ncontract StorageTwo is Owner, Logger, Imt{\r\n    uint256 public noOfFunds;\r\n    mapping(uint256 => address) funders;\r\n\r\n    struct Data {\r\n        address id;\r\n        uint256 amount;\r\n    }\r\n    Data data;\r\n\r\n    mapping(uint256 => Data) funds;\r\n\r\n    function emitLog() public override pure  returns(uint32){\r\n        return 123;\r\n    }\r\n\r\n    function addFunds() external payable {\r\n        uint256 index = noOfFunds++;\r\n        funders[index] = msg.sender;\r\n    }\r\n\r\n    function getFunders(uint256 index) public view returns (address) {\r\n        return funders[index];\r\n    }\r\n\r\n    modifier limitWidral {\r\n        require(address(this).balance >= 1 ether, \"amount is low\");\r\n        _;\r\n    }\r\n\r\n    function withDraw() external override  onlyOwner limitWidral {\r\n        payable(msg.sender).transfer(address(this).balance);\r\n    }\r\n\r\n    function allData() external view returns (address[] memory) {\r\n        address[] memory _funders = new address[](noOfFunds);\r\n        for (uint256 i = 0; i < noOfFunds; i++) {\r\n            _funders[i] = funders[i];\r\n        }\r\n        return _funders;\r\n    }\r\n}",
  "sourcePath": "D:\\repo\\dapp\\contracts\\StorageTwo.sol",
  "compiler": {
    "name": "solc",
    "version": "0.8.16+commit.07a7930e.Emscripten.clang"
  },
  "schemaVersion": "3.4.9",
  "updatedAt": "2022-09-15T14:06:08.845Z",
  "devdoc": {
    "kind": "dev",
    "methods": {},
    "version": 1
  },
  "userdoc": {
    "kind": "user",
    "methods": {},
    "version": 1
  }
}